{
  "abi": [
    {
      "inputs": [],
      "stateMutability": "nonpayable",
      "type": "constructor"
    },
    {
      "anonymous": false,
      "inputs": [
        {
          "indexed": false,
          "internalType": "uint16",
          "name": "x",
          "type": "uint16"
        }
      ],
      "name": "Trigger",
      "type": "event"
    },
    {
      "inputs": [
        {
          "internalType": "uint16",
          "name": "x",
          "type": "uint16"
        }
      ],
      "name": "emitTrigger",
      "outputs": [],
      "stateMutability": "nonpayable",
      "type": "function"
    }
  ],
  "bytecode": {
    "object": "0x608060405234801561001057600080fd5b50604051600081527f166a7d625edff952ff346d1bca4edef10254353f72916b7fb072d55d0f97b5449060200160405180910390a160d7806100536000396000f3fe6080604052348015600f57600080fd5b506004361060285760003560e01c806316d04e0d14602d575b600080fd5b603c60383660046078565b603e565b005b60405161ffff821681527f166a7d625edff952ff346d1bca4edef10254353f72916b7fb072d55d0f97b5449060200160405180910390a150565b600060208284031215608957600080fd5b813561ffff81168114609a57600080fd5b939250505056fea2646970667358221220c2b4462405693955a38a8477cab1c40e3e03ce26bb5bdf71e0c13e051d80872164736f6c63430008160033",
    "linkReferences": {}
  },
  "methodIdentifiers": {
    "emitTrigger(uint16)": "16d04e0d"
  },
  "id": 2
}