{
  "abi": [
    {
      "inputs": [],
      "stateMutability": "nonpayable",
      "type": "constructor"
    },
    {
      "anonymous": false,
      "inputs": [],
      "name": "Trigger",
      "type": "event"
    },
    {
      "inputs": [
        {
          "internalType": "bytes32",
          "name": "",
          "type": "bytes32"
        }
      ],
      "name": "exampleFunction",
      "outputs": [
        {
          "internalType": "uint256",
          "name": "",
          "type": "uint256"
        }
      ],
      "stateMutability": "pure",
      "type": "function"
    },
    {
      "inputs": [
        {
          "internalType": "uint256",
          "name": "",
          "type": "uint256"
        }
      ],
      "name": "exampleFunction",
      "outputs": [
        {
          "internalType": "string",
          "name": "",
          "type": "string"
        }
      ],
      "stateMutability": "pure",
      "type": "function"
    },
    {
      "inputs": [
        {
          "internalType": "string",
          "name": "",
          "type": "string"
        }
      ],
      "name": "exampleFunction",
      "outputs": [
        {
          "internalType": "string",
          "name": "",
          "type": "string"
        }
      ],
      "stateMutability": "pure",
      "type": "function"
    }
  ],
  "bytecode": {
    "object": "0x608060405234801561001057600080fd5b506040517f3d53a39550e04688065827f3bb86584cb007ab9ebca7ebd528e7301c9c31eb5d90600090a1610253806100496000396000f3fe608060405234801561001057600080fd5b50600436106100415760003560e01c806331870cbc14610046578063934bc29d1461006e578063bc2d73ba146100b5575b600080fd5b61005b6100543660046100ee565b5061010090565b6040519081526020015b60405180910390f35b6100a861007c3660046100ee565b5060408051808201909152601181527075696e74323536202d3e20737472696e6760781b602082015290565b6040516100659190610107565b6100a86100c336600461016c565b5060408051808201909152601081526f737472696e67202d3e20737472696e6760801b602082015290565b60006020828403121561010057600080fd5b5035919050565b60006020808352835180602085015260005b8181101561013557858101830151858201604001528201610119565b506000604082860101526040601f19601f8301168501019250505092915050565b634e487b7160e01b600052604160045260246000fd5b60006020828403121561017e57600080fd5b813567ffffffffffffffff8082111561019657600080fd5b818401915084601f8301126101aa57600080fd5b8135818111156101bc576101bc610156565b604051601f8201601f19908116603f011681019083821181831017156101e4576101e4610156565b816040528281528760208487010111156101fd57600080fd5b82602086016020830137600092810160200192909252509594505050505056fea2646970667358221220d1711dc79953e77111c03bd6e4fa0a23e5d560f6d7b18401801c111efc075a6d64736f6c63430008160033",
    "linkReferences": {}
  },
  "methodIdentifiers": {
    "exampleFunction(bytes32)": "31870cbc",
    "exampleFunction(string)": "bc2d73ba",
    "exampleFunction(uint256)": "934bc29d"
  },
  "id": 0
}