{
  "_format": "hh-sol-artifact-1",
  "contractName": "ValidatorSet",
  "sourceName": "contracts/ValidatorSet.sol",
  "abi": [
    {
      "inputs": [
        {
          "internalType": "address",
          "name": "tokenAddress",
          "type": "address"
        },
        {
          "internalType": "uint256",
          "name": "minStake",
          "type": "uint256"
        },
        {
          "internalType": "uint256",
          "name": "lockup",
          "type": "uint256"
        }
      ],
      "stateMutability": "nonpayable",
      "type": "constructor"
    },
    {
      "anonymous": false,
      "inputs": [
        {
          "indexed": true,
          "internalType": "address",
          "name": "delegator",
          "type": "address"
        },
        {
          "indexed": false,
          "internalType": "bytes[]",
          "name": "delegates",
          "type": "bytes[]"
        },
        {
          "indexed": false,
          "internalType": "uint256[]",
          "name": "amounts",
          "type": "uint256[]"
        }
      ],
      "name": "Delegation",
      "type": "event"
    },
    {
      "anonymous": false,
      "inputs": [
        {
          "indexed": true,
          "internalType": "address",
          "name": "depositor",
          "type": "address"
        },
        {
          "indexed": true,
          "internalType": "uint256",
          "name": "amount",
          "type": "uint256"
        }
      ],
      "name": "Deposit",
      "type": "event"
    },
    {
      "anonymous": false,
      "inputs": [
        {
          "indexed": true,
          "internalType": "bytes",
          "name": "stakingKey",
          "type": "bytes"
        },
        {
          "indexed": true,
          "internalType": "bytes",
          "name": "consensusKey",
          "type": "bytes"
        }
      ],
      "name": "ValidatorRegistration",
      "type": "event"
    },
    {
      "anonymous": false,
      "inputs": [
        {
          "indexed": true,
          "internalType": "bytes",
          "name": "stakingKey",
          "type": "bytes"
        }
      ],
      "name": "ValidatorUnregistration",
      "type": "event"
    },
    {
      "anonymous": false,
      "inputs": [
        {
          "indexed": true,
          "internalType": "address",
          "name": "withdrawer",
          "type": "address"
        },
        {
          "indexed": true,
          "internalType": "uint256",
          "name": "amount",
          "type": "uint256"
        }
      ],
      "name": "Withdrawal",
      "type": "event"
    },
    {
      "inputs": [],
      "name": "LOCKUP",
      "outputs": [
        {
          "internalType": "uint256",
          "name": "",
          "type": "uint256"
        }
      ],
      "stateMutability": "view",
      "type": "function"
    },
    {
      "inputs": [],
      "name": "MIN_STAKE",
      "outputs": [
        {
          "internalType": "uint256",
          "name": "",
          "type": "uint256"
        }
      ],
      "stateMutability": "view",
      "type": "function"
    },
    {
      "inputs": [],
      "name": "TOKEN_ADDRESS",
      "outputs": [
        {
          "internalType": "address",
          "name": "",
          "type": "address"
        }
      ],
      "stateMutability": "view",
      "type": "function"
    },
    {
      "inputs": [
        {
          "internalType": "bytes[]",
          "name": "delegates",
          "type": "bytes[]"
        },
        {
          "internalType": "uint256[]",
          "name": "amounts",
          "type": "uint256[]"
        }
      ],
      "name": "delegate",
      "outputs": [],
      "stateMutability": "nonpayable",
      "type": "function"
    },
    {
      "inputs": [
        {
          "internalType": "uint256",
          "name": "amount",
          "type": "uint256"
        }
      ],
      "name": "deposit",
      "outputs": [],
      "stateMutability": "nonpayable",
      "type": "function"
    },
    {
      "inputs": [
        {
          "internalType": "bytes",
          "name": "stakingKey",
          "type": "bytes"
        },
        {
          "internalType": "bytes",
          "name": "consensusKey",
          "type": "bytes"
        },
        {
          "internalType": "bytes",
          "name": "signature",
          "type": "bytes"
        }
      ],
      "name": "registerValidator",
      "outputs": [],
      "stateMutability": "nonpayable",
      "type": "function"
    },
    {
      "inputs": [
        {
          "internalType": "address",
          "name": "",
          "type": "address"
        }
      ],
      "name": "s_deposit",
      "outputs": [
        {
          "internalType": "uint256",
          "name": "amount",
          "type": "uint256"
        },
        {
          "internalType": "uint256",
          "name": "lockup",
          "type": "uint256"
        }
      ],
      "stateMutability": "view",
      "type": "function"
    },
    {
      "inputs": [
        {
          "internalType": "bytes",
          "name": "stakingKey",
          "type": "bytes"
        },
        {
          "internalType": "bytes",
          "name": "signature",
          "type": "bytes"
        }
      ],
      "name": "unregisterValidator",
      "outputs": [],
      "stateMutability": "nonpayable",
      "type": "function"
    },
    {
      "inputs": [
        {
          "internalType": "uint256",
          "name": "amount",
          "type": "uint256"
        }
      ],
      "name": "withdraw",
      "outputs": [],
      "stateMutability": "nonpayable",
      "type": "function"
    }
  ],
  "bytecode": "0x60e06040523480156200001157600080fd5b5060405162001db338038062001db38339818101604052810190620000379190620000b5565b8273ffffffffffffffffffffffffffffffffffffffff1660808173ffffffffffffffffffffffffffffffffffffffff1660601b815250508160a081815250508060c081815250505050506200017d565b600081519050620000988162000149565b92915050565b600081519050620000af8162000163565b92915050565b600080600060608486031215620000cb57600080fd5b6000620000db8682870162000087565b9350506020620000ee868287016200009e565b925050604062000101868287016200009e565b9150509250925092565b600062000118826200011f565b9050919050565b600073ffffffffffffffffffffffffffffffffffffffff82169050919050565b6000819050919050565b62000154816200010b565b81146200016057600080fd5b50565b6200016e816200013f565b81146200017a57600080fd5b50565b60805160601c60a05160c051611be3620001d06000398061035252806105de528061080c5280610910525080610569528061089c5280610a835250806101b15280610659528061098b5250611be36000f3fe608060405234801561001057600080fd5b50600436106100935760003560e01c8063845aef4b11610066578063845aef4b1461010a578063a99bdd1c14610128578063b6b55f2514610159578063cb1c2b5c14610175578063ea684f771461019357610093565b80630bdf5300146100985780632a658d2b146100b65780632e1a7d4d146100d25780635c64995c146100ee575b600080fd5b6100a06101af565b6040516100ad9190611771565b60405180910390f35b6100d060048036038101906100cb91906111ee565b6101d3565b005b6100ec60048036038101906100e79190611386565b61040d565b005b61010860048036038101906101039190611283565b61074d565b005b61011261080a565b60405161011f91906118e3565b60405180910390f35b610142600480360381019061013d91906111c5565b61082e565b6040516101509291906118fe565b60405180910390f35b610173600480360381019061016e9190611386565b610852565b005b61017d610a81565b60405161018a91906118e3565b60405180910390f35b6101ad60048036038101906101a891906112ef565b610aa5565b005b7f000000000000000000000000000000000000000000000000000000000000000081565b8151815114610217576040517f08c379a000000000000000000000000000000000000000000000000000000000815260040161020e906118a3565b60405180910390fd5b6000803373ffffffffffffffffffffffffffffffffffffffff1673ffffffffffffffffffffffffffffffffffffffff1681526020019081526020016000206001015442101561029b576040517f08c379a000000000000000000000000000000000000000000000000000000000815260040161029290611823565b60405180910390fd5b6000805b82518110156102cb578281815181106102b457fe5b60200260200101518201915060018101905061029f565b506000803373ffffffffffffffffffffffffffffffffffffffff1673ffffffffffffffffffffffffffffffffffffffff16815260200190815260200160002060000154811115610350576040517f08c379a000000000000000000000000000000000000000000000000000000000815260040161034790611883565b60405180910390fd5b7f000000000000000000000000000000000000000000000000000000000000000042016000803373ffffffffffffffffffffffffffffffffffffffff1673ffffffffffffffffffffffffffffffffffffffff168152602001908152602001600020600101819055503373ffffffffffffffffffffffffffffffffffffffff167fb304243c5b5465a0f6a6b44be45b6906650d542c8e1dd33b0630f72b2f45408184846040516104009291906117ec565b60405180910390a2505050565b6000803373ffffffffffffffffffffffffffffffffffffffff1673ffffffffffffffffffffffffffffffffffffffff16815260200190815260200160002060000154811115610491576040517f08c379a000000000000000000000000000000000000000000000000000000000815260040161048890611863565b60405180910390fd5b426000803373ffffffffffffffffffffffffffffffffffffffff1673ffffffffffffffffffffffffffffffffffffffff168152602001908152602001600020600101541115610515576040517f08c379a000000000000000000000000000000000000000000000000000000000815260040161050c90611823565b60405180910390fd5b6000816000803373ffffffffffffffffffffffffffffffffffffffff1673ffffffffffffffffffffffffffffffffffffffff16815260200190815260200160002060000154039050600081148061058c57507f00000000000000000000000000000000000000000000000000000000000000008110155b6105cb576040517f08c379a00000000000000000000000000000000000000000000000000000000081526004016105c290611843565b60405180910390fd5b60405180604001604052808281526020017f000000000000000000000000000000000000000000000000000000000000000042018152506000803373ffffffffffffffffffffffffffffffffffffffff1673ffffffffffffffffffffffffffffffffffffffff16815260200190815260200160002060008201518160000155602082015181600101559050507f000000000000000000000000000000000000000000000000000000000000000073ffffffffffffffffffffffffffffffffffffffff1663a9059cbb33846040518363ffffffff1660e01b81526004016106b29291906117c3565b602060405180830381600087803b1580156106cc57600080fd5b505af11580156106e0573d6000803e3d6000fd5b505050506040513d601f19601f82011682018060405250810190610704919061125a565b50813373ffffffffffffffffffffffffffffffffffffffff167f7fcf532c15f0a6db0bd6d0e038bea71d30d808c7d98cb3bf7268a95bf5081b6560405160405180910390a35050565b600061077783604051602001610763919061174f565b604051602081830303815290604052610b7b565b9050610784818385610c22565b6107c3576040517f08c379a00000000000000000000000000000000000000000000000000000000081526004016107ba906118c3565b60405180910390fd5b826040516107d19190611714565b60405180910390207ff47db10f5afa43b31c8a897bb251641a7d2b84011c567c906a5df347c183df1460405160405180910390a2505050565b7f000000000000000000000000000000000000000000000000000000000000000081565b60006020528060005260406000206000915090508060000154908060010154905082565b6000816000803373ffffffffffffffffffffffffffffffffffffffff1673ffffffffffffffffffffffffffffffffffffffff168152602001908152602001600020600001540190507f00000000000000000000000000000000000000000000000000000000000000008110156108fd576040517f08c379a00000000000000000000000000000000000000000000000000000000081526004016108f490611843565b60405180910390fd5b60405180604001604052808281526020017f000000000000000000000000000000000000000000000000000000000000000042018152506000803373ffffffffffffffffffffffffffffffffffffffff1673ffffffffffffffffffffffffffffffffffffffff16815260200190815260200160002060008201518160000155602082015181600101559050507f000000000000000000000000000000000000000000000000000000000000000073ffffffffffffffffffffffffffffffffffffffff166323b872dd3330856040518463ffffffff1660e01b81526004016109e69392919061178c565b602060405180830381600087803b158015610a0057600080fd5b505af1158015610a14573d6000803e3d6000fd5b505050506040513d601f19601f82011682018060405250810190610a38919061125a565b50813373ffffffffffffffffffffffffffffffffffffffff167fe1fffcc4923d04b559f4d29a8bfc6cda04eb5b0d3c460751c2402c5c5cc9109c60405160405180910390a35050565b7f000000000000000000000000000000000000000000000000000000000000000081565b6000610ad18484604051602001610abd92919061172b565b604051602081830303815290604052610b7b565b9050610ade818386610c22565b610b1d576040517f08c379a0000000000000000000000000000000000000000000000000000000008152600401610b14906118c3565b60405180910390fd5b82604051610b2b9190611714565b604051809103902084604051610b419190611714565b60405180910390207fb880ae9a41c67ab61e670929983ea383810f2a09e384b5d1e40a6a8d123e643f60405160405180910390a350505050565b60006002826040518082805190602001908083835b60208310610bb35780518252602082019150602081019050602083039250610b90565b6001836020036101000a038019825116818451168082178552505050505050905001915050602060405180830381855afa158015610bf5573d6000803e3d6000fd5b5050506040513d6020811015610c0a57600080fd5b81019080805190602001909291905050509050919050565b600080610c2f8486610c97565b90506000610c5b84604051602001610c479190611714565b604051602081830303815290604052610db2565b90508073ffffffffffffffffffffffffffffffffffffffff168273ffffffffffffffffffffffffffffffffffffffff1614925050509392505050565b60006040835114610d10576040517f08c379a00000000000000000000000000000000000000000000000000000000081526004018080602001828103825260188152602001807f7369676e61747572652d696e76616c69642d6c656e677468000000000000000081525060200191505060405180910390fd5b600080600080868060200190516040811015610d2b57600080fd5b810190808051906020019092919080519060200190929190505050809550819450505060007f80000000000000000000000000000000000000000000000000000000000000008560001c1611610d82576000610d85565b60015b601b0190506001808560001c901b901c60001b9150610da681848489610e35565b94505050505092915050565b600080826040516020018082805190602001908083835b60208310610dec5780518252602082019150602081019050602083039250610dc9565b6001836020036101000a0380198251168184511680821785525050505050509050019150506040516020818303038152906040528051906020012090508060001c915050919050565b60007f7fffffffffffffffffffffffffffffff5d576e7357a4501ddfe92f46681b20a08360001c1115610ed0576040517f08c379a00000000000000000000000000000000000000000000000000000000081526004018080602001828103825260138152602001807f7369676e61747572652d696e76616c69642d730000000000000000000000000081525060200191505060405180910390fd5b60008260405160200180807f19457468657265756d205369676e6564204d6573736167653a0a333200000000815250601c01828152602001915050604051602081830303815290604052805190602001209050600060018288888860405160008152602001604052604051808581526020018460ff1681526020018381526020018281526020019450505050506020604051602081039080840390855afa158015610f7f573d6000803e3d6000fd5b505050602060405103519050600073ffffffffffffffffffffffffffffffffffffffff168173ffffffffffffffffffffffffffffffffffffffff16141561102e576040517f08c379a00000000000000000000000000000000000000000000000000000000081526004018080602001828103825260118152602001807f7369676e61747572652d696e76616c696400000000000000000000000000000081525060200191505060405180910390fd5b8092505050949350505050565b60008135905061104a81611b68565b92915050565b600082601f83011261106157600080fd5b813561107461106f82611958565b611927565b9150818183526020840193506020810190508360005b838110156110ba57813586016110a0888261115c565b84526020840193506020830192505060018101905061108a565b5050505092915050565b600082601f8301126110d557600080fd5b81356110e86110e382611984565b611927565b9150818183526020840193506020810190508385602084028201111561110d57600080fd5b60005b8381101561113d578161112388826111b0565b845260208401935060208301925050600181019050611110565b5050505092915050565b60008151905061115681611b7f565b92915050565b600082601f83011261116d57600080fd5b813561118061117b826119b0565b611927565b9150808252602083016020830185838301111561119c57600080fd5b6111a7838284611b13565b50505092915050565b6000813590506111bf81611b96565b92915050565b6000602082840312156111d757600080fd5b60006111e58482850161103b565b91505092915050565b6000806040838503121561120157600080fd5b600083013567ffffffffffffffff81111561121b57600080fd5b61122785828601611050565b925050602083013567ffffffffffffffff81111561124457600080fd5b611250858286016110c4565b9150509250929050565b60006020828403121561126c57600080fd5b600061127a84828501611147565b91505092915050565b6000806040838503121561129657600080fd5b600083013567ffffffffffffffff8111156112b057600080fd5b6112bc8582860161115c565b925050602083013567ffffffffffffffff8111156112d957600080fd5b6112e58582860161115c565b9150509250929050565b60008060006060848603121561130457600080fd5b600084013567ffffffffffffffff81111561131e57600080fd5b61132a8682870161115c565b935050602084013567ffffffffffffffff81111561134757600080fd5b6113538682870161115c565b925050604084013567ffffffffffffffff81111561137057600080fd5b61137c8682870161115c565b9150509250925092565b60006020828403121561139857600080fd5b60006113a6848285016111b0565b91505092915050565b60006113bb83836114cc565b905092915050565b60006113cf83836116f6565b60208301905092915050565b6113e481611add565b82525050565b6113f381611a95565b82525050565b600061140482611a00565b61140e8185611a3b565b935083602082028501611420856119e0565b8060005b8581101561145c578484038952815161143d85826113af565b945061144883611a21565b925060208a01995050600181019050611424565b50829750879550505050505092915050565b600061147982611a0b565b6114838185611a4c565b935061148e836119f0565b8060005b838110156114bf5781516114a688826113c3565b97506114b183611a2e565b925050600181019050611492565b5085935050505092915050565b60006114d782611a16565b6114e18185611a5d565b93506114f1818560208601611b22565b6114fa81611b57565b840191505092915050565b600061151082611a16565b61151a8185611a6e565b935061152a818560208601611b22565b80840191505092915050565b6000611543600e83611a79565b91507f6465706f7369742d6c6f636b65640000000000000000000000000000000000006000830152602082019050919050565b6000611583601383611a79565b91507f6e65772d62616c616e63652d746f6f2d6c6f77000000000000000000000000006000830152602082019050919050565b60006115c3601483611a79565b91507f696e73756666696369656e742d62616c616e63650000000000000000000000006000830152602082019050919050565b6000611603601283611a79565b91507f696e73756666696369656e742d7374616b6500000000000000000000000000006000830152602082019050919050565b6000611643600f83611a79565b91507f6c656e6774682d6d69736d6174636800000000000000000000000000000000006000830152602082019050919050565b6000611683601383611a79565b91507f696e636f72726563742d7369676e6174757265000000000000000000000000006000830152602082019050919050565b60006116c3600a83611a8a565b91507f554e5245474953544552000000000000000000000000000000000000000000006000830152600a82019050919050565b6116ff81611ad3565b82525050565b61170e81611ad3565b82525050565b60006117208284611505565b915081905092915050565b60006117378285611505565b91506117438284611505565b91508190509392505050565b600061175a826116b6565b91506117668284611505565b915081905092915050565b600060208201905061178660008301846113ea565b92915050565b60006060820190506117a160008301866113db565b6117ae60208301856113ea565b6117bb6040830184611705565b949350505050565b60006040820190506117d860008301856113db565b6117e56020830184611705565b9392505050565b6000604082019050818103600083015261180681856113f9565b9050818103602083015261181a818461146e565b90509392505050565b6000602082019050818103600083015261183c81611536565b9050919050565b6000602082019050818103600083015261185c81611576565b9050919050565b6000602082019050818103600083015261187c816115b6565b9050919050565b6000602082019050818103600083015261189c816115f6565b9050919050565b600060208201905081810360008301526118bc81611636565b9050919050565b600060208201905081810360008301526118dc81611676565b9050919050565b60006020820190506118f86000830184611705565b92915050565b60006040820190506119136000830185611705565b6119206020830184611705565b9392505050565b6000604051905081810181811067ffffffffffffffff8211171561194e5761194d611b55565b5b8060405250919050565b600067ffffffffffffffff82111561197357611972611b55565b5b602082029050602081019050919050565b600067ffffffffffffffff82111561199f5761199e611b55565b5b602082029050602081019050919050565b600067ffffffffffffffff8211156119cb576119ca611b55565b5b601f19601f8301169050602081019050919050565b6000819050602082019050919050565b6000819050602082019050919050565b600081519050919050565b600081519050919050565b600081519050919050565b6000602082019050919050565b6000602082019050919050565b600082825260208201905092915050565b600082825260208201905092915050565b600082825260208201905092915050565b600081905092915050565b600082825260208201905092915050565b600081905092915050565b6000611aa082611ab3565b9050919050565b60008115159050919050565b600073ffffffffffffffffffffffffffffffffffffffff82169050919050565b6000819050919050565b6000611ae882611aef565b9050919050565b6000611afa82611b01565b9050919050565b6000611b0c82611ab3565b9050919050565b82818337600083830152505050565b60005b83811015611b40578082015181840152602081019050611b25565b83811115611b4f576000848401525b50505050565bfe5b6000601f19601f8301169050919050565b611b7181611a95565b8114611b7c57600080fd5b50565b611b8881611aa7565b8114611b9357600080fd5b50565b611b9f81611ad3565b8114611baa57600080fd5b5056fea2646970667358221220804d886c8b1d0b2fa7ab0184a68f6f9b2fc17e31d8eb66f48cd577243a210cf564736f6c63430007040033",
  "linkReferences": {},
  "deployedLinkReferences": {}
}